:100000000C9454000C9473000C9473000C947300C3
:100010000C9473000C9473000C9473000C94730094
:100020000C9473000C9473000C9473000C94730084
:100030000C9473000C9473000C9473000C94730074
:100040000C9473000C9473000C9473000C94730064
:100050000C9473000C9473000C9473000C94730054
:100060000C9473000C9473000C9473000C94730044
:100070000C9473000C9473000C9473000C94730034
:100080000C9473000C9473000C947300B800BF00C0
:10009000C60008010F01E900F0004C015101770191
:1000A0005D0177017701560111241FBECFEFD0E427
:1000B000DEBFCDBF11E0A0E0B1E0E0E4F3E000E09E
:1000C0000BBF02C007900D92AE31B107D9F721E006
:1000D000AEE1B1E001C01D92A132B207E1F70E948A
:1000E0007C010C949E010C940000CF93DF9300D010
:1000F0001F92CDB7DEB789837B836A8389818A307B
:1001000031F48A819B81BC018DE00E94750080ECF6
:1001100090E0FC018081882F90E080729927892BE4
:10012000B1F386EC90E02981FC01208380E090E02F
:100130000F900F900F90DF91CF910895CF93DF93A1
:10014000CDB7DEB780911F0190912001CC01A0E0D6
:10015000B0E040E050E026E030E0841B950B28172B
:10016000390708F47EC08A5B9F4FFC010C9495010F
:1001700081E090E09093200180931F0178C082E09D
:1001800090E09093200180931F0171C080911E0127
:10019000883038F085E090E09093200180931F0133
:1001A00066C080E290E0FC018081882F90E0817041
:1001B0009927892B39F483E090E090932001809374
:1001C0001F0155C082E090E09093200180931F01B1
:1001D0004EC086E090E09093200180931F0147C0BD
:1001E00080E290E0FC018081882F90E08170992767
:1001F000892B39F082E090E09093200180931F01D9
:1002000036C086E090E09093200180931F012FC0BC
:1002100084E090E09093200180931F0128C080E249
:1002200090E0FC018081882F90E081709927892BD4
:1002300039F484E090E09093200180931F0116C070
:1002400080E290E0FC018081882F90E08170992706
:10025000892B61F082E090E09093200180931F0150
:1002600005C01092200110921F0101C00000809172
:100270001F0190912001CC01A0E0B0E040E050E0EF
:1002800026E030E0841B950B2817390758F1835B73
:100290009F4FFC010C94950185E290E0FC011082D7
:1002A00027C085E290E0FC01108222C085E290E048
:1002B000FC01108210921E011BC085E290E020918B
:1002C0001E012F5F20931E0120911E01222F30E07E
:1002D000220F331F225F3E4FF90120813181FC0143
:1002E000208306C085E290E0FC01108201C000007E
:1002F0000000DF91CF910895CF93DF93CDB7DEB7A4
:1003000081E290E0FC01108282E290E02FEFFC019C
:10031000208384E290E02FEFFC01208385E290E0CF
:10032000FC0110820E949E00FDCFEE0FFF1F0024F3
:10033000001C0BBE0790F691E02D0994F894FFCFB6
:100340000000000200000000750000000000000036
:0E0350000100030007000F001F003F007F00A8
:00000001FF
